{
  "contractName": "Project",
  "abi": [
    {
      "inputs": [
        {
          "internalType": "address payable",
          "name": "_creator",
          "type": "address"
        },
        {
          "internalType": "string",
          "name": "_title",
          "type": "string"
        },
        {
          "internalType": "string",
          "name": "_description",
          "type": "string"
        },
        {
          "internalType": "uint256",
          "name": "_timeDeadline",
          "type": "uint256"
        },
        {
          "internalType": "uint256",
          "name": "_goalAmount",
          "type": "uint256"
        }
      ],
      "stateMutability": "nonpayable",
      "type": "constructor"
    },
    {
      "anonymous": false,
      "inputs": [
        {
          "indexed": false,
          "internalType": "address",
          "name": "recipient",
          "type": "address"
        }
      ],
      "name": "CreatorRecieved",
      "type": "event"
    },
    {
      "anonymous": false,
      "inputs": [
        {
          "indexed": false,
          "internalType": "address",
          "name": "contributor",
          "type": "address"
        },
        {
          "indexed": false,
          "internalType": "uint256",
          "name": "amount",
          "type": "uint256"
        },
        {
          "indexed": false,
          "internalType": "uint256",
          "name": "currentTotal",
          "type": "uint256"
        }
      ],
      "name": "FundingRecieved",
      "type": "event"
    },
    {
      "inputs": [],
      "name": "completedAt",
      "outputs": [
        {
          "internalType": "uint256",
          "name": "",
          "type": "uint256"
        }
      ],
      "stateMutability": "view",
      "type": "function"
    },
    {
      "inputs": [
        {
          "internalType": "address",
          "name": "",
          "type": "address"
        }
      ],
      "name": "contributions",
      "outputs": [
        {
          "internalType": "uint256",
          "name": "",
          "type": "uint256"
        }
      ],
      "stateMutability": "view",
      "type": "function"
    },
    {
      "inputs": [],
      "name": "creator",
      "outputs": [
        {
          "internalType": "address payable",
          "name": "",
          "type": "address"
        }
      ],
      "stateMutability": "view",
      "type": "function"
    },
    {
      "inputs": [],
      "name": "currentBalance",
      "outputs": [
        {
          "internalType": "uint256",
          "name": "",
          "type": "uint256"
        }
      ],
      "stateMutability": "view",
      "type": "function"
    },
    {
      "inputs": [],
      "name": "description",
      "outputs": [
        {
          "internalType": "string",
          "name": "",
          "type": "string"
        }
      ],
      "stateMutability": "view",
      "type": "function"
    },
    {
      "inputs": [],
      "name": "goalAmount",
      "outputs": [
        {
          "internalType": "uint256",
          "name": "",
          "type": "uint256"
        }
      ],
      "stateMutability": "view",
      "type": "function"
    },
    {
      "inputs": [],
      "name": "state",
      "outputs": [
        {
          "internalType": "enum Project.State",
          "name": "",
          "type": "uint8"
        }
      ],
      "stateMutability": "view",
      "type": "function"
    },
    {
      "inputs": [],
      "name": "timeDeadline",
      "outputs": [
        {
          "internalType": "uint256",
          "name": "",
          "type": "uint256"
        }
      ],
      "stateMutability": "view",
      "type": "function"
    },
    {
      "inputs": [],
      "name": "title",
      "outputs": [
        {
          "internalType": "string",
          "name": "",
          "type": "string"
        }
      ],
      "stateMutability": "view",
      "type": "function"
    },
    {
      "inputs": [],
      "name": "contribute",
      "outputs": [],
      "stateMutability": "payable",
      "type": "function"
    },
    {
      "inputs": [],
      "name": "checkIfFundingCompleteOrExpired",
      "outputs": [],
      "stateMutability": "nonpayable",
      "type": "function"
    }
  ],
  "bytecode": "0x60806040526000600760006101000a81548160ff0219169083600281111561002357fe5b021790555034801561003457600080fd5b50604051610b17380380610b17833981810160405260a081101561005757600080fd5b81019080805190602001909291908051604051939291908464010000000082111561008157600080fd5b8382019150602082018581111561009757600080fd5b82518660018202830111640100000000821117156100b457600080fd5b8083526020830192505050908051906020019080838360005b838110156100e85780820151818401526020810190506100cd565b50505050905090810190601f1680156101155780820380516001836020036101000a031916815260200191505b506040526020018051604051939291908464010000000082111561013857600080fd5b8382019150602082018581111561014e57600080fd5b825186600182028301116401000000008211171561016b57600080fd5b8083526020830192505050908051906020019080838360005b8381101561019f578082015181840152602081019050610184565b50505050905090810190601f1680156101cc5780820380516001836020036101000a031916815260200191505b506040526020018051906020019092919080519060200190929190505050846000806101000a81548173ffffffffffffffffffffffffffffffffffffffff021916908373ffffffffffffffffffffffffffffffffffffffff1602179055508360059080519060200190610240929190610278565b508260069080519060200190610257929190610278565b50806001819055508160048190555060006003819055505050505050610323565b828054600181600116156101000203166002900490600052602060002090601f0160209004810192826102ae57600085556102f5565b82601f106102c757805160ff19168380011785556102f5565b828001600101855582156102f5579182015b828111156102f45782518255916020019190600101906102d9565b5b5090506103029190610306565b5090565b5b8082111561031f576000816000905550600101610307565b5090565b6107e5806103326000396000f3fe60806040526004361061009c5760003560e01c80637284e416116100645780637284e4161461022d57806386f32586146102bd578063a5e0e9bb146102d4578063c19d93fb146102ff578063ce845d1d14610335578063d7bb99ba146103605761009c565b806302d05d3f146100a15780632636b945146100e2578063387712421461010d57806342e94c90146101385780634a79d50c1461019d575b600080fd5b3480156100ad57600080fd5b506100b661036a565b604051808273ffffffffffffffffffffffffffffffffffffffff16815260200191505060405180910390f35b3480156100ee57600080fd5b506100f761038e565b6040518082815260200191505060405180910390f35b34801561011957600080fd5b50610122610394565b6040518082815260200191505060405180910390f35b34801561014457600080fd5b506101876004803603602081101561015b57600080fd5b81019080803573ffffffffffffffffffffffffffffffffffffffff16906020019092919050505061039a565b6040518082815260200191505060405180910390f35b3480156101a957600080fd5b506101b26103b2565b6040518080602001828103825283818151815260200191508051906020019080838360005b838110156101f25780820151818401526020810190506101d7565b50505050905090810190601f16801561021f5780820380516001836020036101000a031916815260200191505b509250505060405180910390f35b34801561023957600080fd5b50610242610450565b6040518080602001828103825283818151815260200191508051906020019080838360005b83811015610282578082015181840152602081019050610267565b50505050905090810190601f1680156102af5780820380516001836020036101000a031916815260200191505b509250505060405180910390f35b3480156102c957600080fd5b506102d26104ee565b005b3480156102e057600080fd5b506102e9610529565b6040518082815260200191505060405180910390f35b34801561030b57600080fd5b5061031461052f565b6040518082600281111561032457fe5b815260200191505060405180910390f35b34801561034157600080fd5b5061034a610542565b6040518082815260200191505060405180910390f35b610368610548565b005b60008054906101000a900473ffffffffffffffffffffffffffffffffffffffff1681565b60015481565b60025481565b60086020528060005260406000206000915090505481565b60058054600181600116156101000203166002900480601f0160208091040260200160405190810160405280929190818152602001828054600181600116156101000203166002900480156104485780601f1061041d57610100808354040283529160200191610448565b820191906000526020600020905b81548152906001019060200180831161042b57829003601f168201915b505050505081565b60068054600181600116156101000203166002900480601f0160208091040260200160405190810160405280929190818152602001828054600181600116156101000203166002900480156104e65780601f106104bb576101008083540402835291602001916104e6565b820191906000526020600020905b8154815290600101906020018083116104c957829003601f168201915b505050505081565b60015460035410610527576002600760006101000a81548160ff0219169083600281111561051857fe5b02179055506105256106ee565b505b565b60045481565b600760009054906101000a900460ff1681565b60035481565b600080600281111561055657fe5b600760009054906101000a900460ff16600281111561057157fe5b1461057b57600080fd5b60008054906101000a900473ffffffffffffffffffffffffffffffffffffffff1673ffffffffffffffffffffffffffffffffffffffff163373ffffffffffffffffffffffffffffffffffffffff1614156105d457600080fd5b61062634600860003373ffffffffffffffffffffffffffffffffffffffff1673ffffffffffffffffffffffffffffffffffffffff1681526020019081526020016000205461072790919063ffffffff16565b600860003373ffffffffffffffffffffffffffffffffffffffff1673ffffffffffffffffffffffffffffffffffffffff1681526020019081526020016000208190555061067e3460035461072790919063ffffffff16565b6003819055507fe76ad748537a48e778fef43dda4a6bd1b50cd62385f9f21a9ca26749235512083334600354604051808473ffffffffffffffffffffffffffffffffffffffff168152602001838152602001828152602001935050505060405180910390a16106eb6104ee565b50565b600060028060028111156106fe57fe5b600760009054906101000a900460ff16600281111561071957fe5b1461072357600080fd5b5090565b6000808284019050838110156107a5576040517f08c379a000000000000000000000000000000000000000000000000000000000815260040180806020018281038252601b8152602001807f536166654d6174683a206164646974696f6e206f766572666c6f77000000000081525060200191505060405180910390fd5b809150509291505056fea264697066735822122061770e01585578abcee85511ba2ae2a89aa05c8f32fc4b11fdaa72d49bb48db864736f6c63430007040033",
  "immutableReferences": {},
  "source": "// SPDX-License-Identifier: MIT\npragma solidity ^0.7.4;\nimport \"@openzeppelin/contracts/math/SafeMath.sol\";\n\ncontract Project {\n    using SafeMath for uint256;\n\n    // Data structures\n    enum State {\n        Fundarising, \n        Expired,\n        Succesful\n    }\n\n    // State variables\n    address payable public creator;\n    uint public goalAmount;  // required to reach at least this much, else everyone gets refund\n    uint public completedAt;\n    uint256 public currentBalance;\n    uint public timeDeadline;\n    string public title;\n    string public description;\n    State public state = State.Fundarising;\n    mapping(address => uint) public contributions;\n    \n    // Event that will be emitted whenever funding will be received\n    event FundingRecieved(address contributor, uint amount, uint currentTotal);\n    // Event that will be emitted whenever the project starter has received the funds\n    event CreatorRecieved(address recipient);\n    \n    // Modifier to check current state\n    modifier inState(State _state) {\n        require(state == _state);\n        _;\n    }\n    \n    // Modifier to check if the function caller is the project creator\n    modifier isCreator() {\n        require(msg.sender == creator);\n        _;\n    }\n\n    constructor(\n        address payable _creator,\n        string memory _title,\n        string memory _description,\n        uint _timeDeadline,\n        uint _goalAmount\n    ) {\n        creator = _creator;\n        title = _title;\n        description = _description;\n        goalAmount = _goalAmount;\n        timeDeadline = _timeDeadline;\n        currentBalance = 0;\n    }\n\n    // @dev Function to fund a certain project.\n    function contribute() external inState(State.Fundarising) payable {\n        require(msg.sender != creator);\n        contributions[msg.sender] = contributions[msg.sender].add(msg.value);\n        currentBalance = currentBalance.add(msg.value);\n        emit FundingRecieved(msg.sender, msg.value, currentBalance);\n        checkIfFundingCompleteOrExpired();\n    }\n\n    function checkIfFundingCompleteOrExpired() public {\n        if (currentBalance >= goalAmount) {\n            state = State.Succesful;\n            payOut();\n        }\n    } \n\n    function payOut() internal inState(State.Succesful) returns(bool) {\n\n    }\n}",
  "sourcePath": "/Library/Dev/Code/blk-crowdfunding/contracts/Project.sol",
  "compiler": {
    "name": "solc",
    "version": "0.7.4+commit.3f05b770.Emscripten.clang"
  },
  "schemaVersion": "3.3.3",
  "updatedAt": "2021-01-02T18:11:01.907Z",
  "devdoc": {
    "kind": "dev",
    "methods": {},
    "version": 1
  },
  "userdoc": {
    "kind": "user",
    "methods": {},
    "version": 1
  }
}