{
  "contractName": "Project",
  "abi": [
    {
      "inputs": [
        {
          "internalType": "address payable",
          "name": "_creator",
          "type": "address"
        },
        {
          "internalType": "string",
          "name": "_title",
          "type": "string"
        },
        {
          "internalType": "string",
          "name": "_description",
          "type": "string"
        },
        {
          "internalType": "uint256",
          "name": "_timeDeadline",
          "type": "uint256"
        },
        {
          "internalType": "uint256",
          "name": "_goalAmount",
          "type": "uint256"
        }
      ],
      "stateMutability": "nonpayable",
      "type": "constructor"
    },
    {
      "anonymous": false,
      "inputs": [
        {
          "indexed": false,
          "internalType": "address",
          "name": "recipient",
          "type": "address"
        }
      ],
      "name": "CreatorRecievedFunds",
      "type": "event"
    },
    {
      "anonymous": false,
      "inputs": [
        {
          "indexed": false,
          "internalType": "address",
          "name": "contributor",
          "type": "address"
        },
        {
          "indexed": false,
          "internalType": "uint256",
          "name": "amount",
          "type": "uint256"
        },
        {
          "indexed": false,
          "internalType": "uint256",
          "name": "currentTotal",
          "type": "uint256"
        }
      ],
      "name": "FundingRecieved",
      "type": "event"
    },
    {
      "inputs": [],
      "name": "completedAt",
      "outputs": [
        {
          "internalType": "uint256",
          "name": "",
          "type": "uint256"
        }
      ],
      "stateMutability": "view",
      "type": "function"
    },
    {
      "inputs": [
        {
          "internalType": "address",
          "name": "",
          "type": "address"
        }
      ],
      "name": "contributions",
      "outputs": [
        {
          "internalType": "uint256",
          "name": "",
          "type": "uint256"
        }
      ],
      "stateMutability": "view",
      "type": "function"
    },
    {
      "inputs": [],
      "name": "creator",
      "outputs": [
        {
          "internalType": "address payable",
          "name": "",
          "type": "address"
        }
      ],
      "stateMutability": "view",
      "type": "function"
    },
    {
      "inputs": [],
      "name": "currentBalance",
      "outputs": [
        {
          "internalType": "uint256",
          "name": "",
          "type": "uint256"
        }
      ],
      "stateMutability": "view",
      "type": "function"
    },
    {
      "inputs": [],
      "name": "description",
      "outputs": [
        {
          "internalType": "string",
          "name": "",
          "type": "string"
        }
      ],
      "stateMutability": "view",
      "type": "function"
    },
    {
      "inputs": [],
      "name": "goalAmount",
      "outputs": [
        {
          "internalType": "uint256",
          "name": "",
          "type": "uint256"
        }
      ],
      "stateMutability": "view",
      "type": "function"
    },
    {
      "inputs": [],
      "name": "state",
      "outputs": [
        {
          "internalType": "enum Project.State",
          "name": "",
          "type": "uint8"
        }
      ],
      "stateMutability": "view",
      "type": "function"
    },
    {
      "inputs": [],
      "name": "timeDeadline",
      "outputs": [
        {
          "internalType": "uint256",
          "name": "",
          "type": "uint256"
        }
      ],
      "stateMutability": "view",
      "type": "function"
    },
    {
      "inputs": [],
      "name": "title",
      "outputs": [
        {
          "internalType": "string",
          "name": "",
          "type": "string"
        }
      ],
      "stateMutability": "view",
      "type": "function"
    },
    {
      "inputs": [],
      "name": "contribute",
      "outputs": [],
      "stateMutability": "payable",
      "type": "function"
    },
    {
      "inputs": [],
      "name": "checkIfFundingCompleteOrExpired",
      "outputs": [],
      "stateMutability": "nonpayable",
      "type": "function"
    },
    {
      "inputs": [],
      "name": "getRefund",
      "outputs": [
        {
          "internalType": "bool",
          "name": "",
          "type": "bool"
        }
      ],
      "stateMutability": "nonpayable",
      "type": "function"
    },
    {
      "inputs": [],
      "name": "getDetails",
      "outputs": [
        {
          "internalType": "address payable",
          "name": "_creator",
          "type": "address"
        },
        {
          "internalType": "string",
          "name": "_title",
          "type": "string"
        },
        {
          "internalType": "string",
          "name": "_description",
          "type": "string"
        },
        {
          "internalType": "uint256",
          "name": "_timeDeadline",
          "type": "uint256"
        },
        {
          "internalType": "enum Project.State",
          "name": "_state",
          "type": "uint8"
        },
        {
          "internalType": "uint256",
          "name": "_currentBalance",
          "type": "uint256"
        },
        {
          "internalType": "uint256",
          "name": "_goalAmount",
          "type": "uint256"
        }
      ],
      "stateMutability": "view",
      "type": "function"
    }
  ],
  "bytecode": "0x60806040526000600760006101000a81548160ff021916908360028111156200002457fe5b02179055503480156200003657600080fd5b506040516200122b3803806200122b833981810160405260a08110156200005c57600080fd5b8101908080519060200190929190805160405193929190846401000000008211156200008757600080fd5b838201915060208201858111156200009e57600080fd5b8251866001820283011164010000000082111715620000bc57600080fd5b8083526020830192505050908051906020019080838360005b83811015620000f2578082015181840152602081019050620000d5565b50505050905090810190601f168015620001205780820380516001836020036101000a031916815260200191505b50604052602001805160405193929190846401000000008211156200014457600080fd5b838201915060208201858111156200015b57600080fd5b82518660018202830111640100000000821117156200017957600080fd5b8083526020830192505050908051906020019080838360005b83811015620001af57808201518184015260208101905062000192565b50505050905090810190601f168015620001dd5780820380516001836020036101000a031916815260200191505b506040526020018051906020019092919080519060200190929190505050846000806101000a81548173ffffffffffffffffffffffffffffffffffffffff021916908373ffffffffffffffffffffffffffffffffffffffff1602179055508360059080519060200190620002539291906200028e565b5082600690805190602001906200026c9291906200028e565b5080600181905550816004819055506000600381905550505050505062000344565b828054600181600116156101000203166002900490600052602060002090601f016020900481019282620002c6576000855562000312565b82601f10620002e157805160ff191683800117855562000312565b8280016001018555821562000312579182015b8281111562000311578251825591602001919060010190620002f4565b5b50905062000321919062000325565b5090565b5b808211156200034057600081600090555060010162000326565b5090565b610ed780620003546000396000f3fe6080604052600436106100c25760003560e01c806386f325861161007f578063c19d93fb11610059578063c19d93fb14610352578063ce845d1d14610388578063d7bb99ba146103b3578063fbbf93a0146103bd576100c2565b806386f32586146102e3578063a5e0e9bb146102fa578063b2d5ae4414610325576100c2565b806302d05d3f146100c75780632636b94514610108578063387712421461013357806342e94c901461015e5780634a79d50c146101c35780637284e41614610253575b600080fd5b3480156100d357600080fd5b506100dc6104fd565b604051808273ffffffffffffffffffffffffffffffffffffffff16815260200191505060405180910390f35b34801561011457600080fd5b5061011d610521565b6040518082815260200191505060405180910390f35b34801561013f57600080fd5b50610148610527565b6040518082815260200191505060405180910390f35b34801561016a57600080fd5b506101ad6004803603602081101561018157600080fd5b81019080803573ffffffffffffffffffffffffffffffffffffffff16906020019092919050505061052d565b6040518082815260200191505060405180910390f35b3480156101cf57600080fd5b506101d8610545565b6040518080602001828103825283818151815260200191508051906020019080838360005b838110156102185780820151818401526020810190506101fd565b50505050905090810190601f1680156102455780820380516001836020036101000a031916815260200191505b509250505060405180910390f35b34801561025f57600080fd5b506102686105e3565b6040518080602001828103825283818151815260200191508051906020019080838360005b838110156102a857808201518184015260208101905061028d565b50505050905090810190601f1680156102d55780820380516001836020036101000a031916815260200191505b509250505060405180910390f35b3480156102ef57600080fd5b506102f8610681565b005b34801561030657600080fd5b5061030f6106f7565b6040518082815260200191505060405180910390f35b34801561033157600080fd5b5061033a6106fd565b60405180821515815260200191505060405180910390f35b34801561035e57600080fd5b50610367610874565b6040518082600281111561037757fe5b815260200191505060405180910390f35b34801561039457600080fd5b5061039d610887565b6040518082815260200191505060405180910390f35b6103bb61088d565b005b3480156103c957600080fd5b506103d2610a33565b604051808873ffffffffffffffffffffffffffffffffffffffff168152602001806020018060200187815260200186600281111561040c57fe5b8152602001858152602001848152602001838103835289818151815260200191508051906020019080838360005b8381101561045557808201518184015260208101905061043a565b50505050905090810190601f1680156104825780820380516001836020036101000a031916815260200191505b50838103825288818151815260200191508051906020019080838360005b838110156104bb5780820151818401526020810190506104a0565b50505050905090810190601f1680156104e85780820380516001836020036101000a031916815260200191505b50995050505050505050505060405180910390f35b60008054906101000a900473ffffffffffffffffffffffffffffffffffffffff1681565b60015481565b60025481565b60086020528060005260406000206000915090505481565b60058054600181600116156101000203166002900480601f0160208091040260200160405190810160405280929190818152602001828054600181600116156101000203166002900480156105db5780601f106105b0576101008083540402835291602001916105db565b820191906000526020600020905b8154815290600101906020018083116105be57829003601f168201915b505050505081565b60068054600181600116156101000203166002900480601f0160208091040260200160405190810160405280929190818152602001828054600181600116156101000203166002900480156106795780601f1061064e57610100808354040283529160200191610679565b820191906000526020600020905b81548152906001019060200180831161065c57829003601f168201915b505050505081565b600154600354106106be576002600760006101000a81548160ff021916908360028111156106ab57fe5b02179055506106b8610bc5565b506106ee565b6004544211156106ed576001600760006101000a81548160ff021916908360028111156106e757fe5b02179055505b5b42600281905550565b60045481565b6000600180600281111561070d57fe5b600760009054906101000a900460ff16600281111561072857fe5b1461073257600080fd5b6000600860003373ffffffffffffffffffffffffffffffffffffffff1673ffffffffffffffffffffffffffffffffffffffff1681526020019081526020016000205490506000811161078357600080fd5b6000600860003373ffffffffffffffffffffffffffffffffffffffff1673ffffffffffffffffffffffffffffffffffffffff168152602001908152602001600020819055503373ffffffffffffffffffffffffffffffffffffffff166108fc829081150290604051600060405180830381858888f1935050505061084f5780600860003373ffffffffffffffffffffffffffffffffffffffff1673ffffffffffffffffffffffffffffffffffffffff168152602001908152602001600020819055506000925050610870565b61086481600354610d0f90919063ffffffff16565b60038190555060019250505b5090565b600760009054906101000a900460ff1681565b60035481565b600080600281111561089b57fe5b600760009054906101000a900460ff1660028111156108b657fe5b146108c057600080fd5b60008054906101000a900473ffffffffffffffffffffffffffffffffffffffff1673ffffffffffffffffffffffffffffffffffffffff163373ffffffffffffffffffffffffffffffffffffffff16141561091957600080fd5b61096b34600860003373ffffffffffffffffffffffffffffffffffffffff1673ffffffffffffffffffffffffffffffffffffffff16815260200190815260200160002054610d5990919063ffffffff16565b600860003373ffffffffffffffffffffffffffffffffffffffff1673ffffffffffffffffffffffffffffffffffffffff168152602001908152602001600020819055506109c334600354610d5990919063ffffffff16565b6003819055507fe76ad748537a48e778fef43dda4a6bd1b50cd62385f9f21a9ca26749235512083334600354604051808473ffffffffffffffffffffffffffffffffffffffff168152602001838152602001828152602001935050505060405180910390a1610a30610681565b50565b600060608060008060008060008054906101000a900473ffffffffffffffffffffffffffffffffffffffff16965060058054600181600116156101000203166002900480601f016020809104026020016040519081016040528092919081815260200182805460018160011615610100020316600290048015610af75780601f10610acc57610100808354040283529160200191610af7565b820191906000526020600020905b815481529060010190602001808311610ada57829003601f168201915b5050505050955060068054600181600116156101000203166002900480601f016020809104026020016040519081016040528092919081815260200182805460018160011615610100020316600290048015610b945780601f10610b6957610100808354040283529160200191610b94565b820191906000526020600020905b815481529060010190602001808311610b7757829003601f168201915b505050505094506004549350600760009054906101000a900460ff1692506003549150600154905090919293949596565b60006002806002811115610bd557fe5b600760009054906101000a900460ff166002811115610bf057fe5b14610bfa57600080fd5b60006003549050600060038190555060008054906101000a900473ffffffffffffffffffffffffffffffffffffffff1673ffffffffffffffffffffffffffffffffffffffff166108fc829081150290604051600060405180830381858888f1935050505015610cda577f72f1bc7708de31abddda0481489fd21f0cac083f5b6b9d099f3989290e655f3460008054906101000a900473ffffffffffffffffffffffffffffffffffffffff16604051808273ffffffffffffffffffffffffffffffffffffffff16815260200191505060405180910390a16001925050610d0b565b806003819055506002600760006101000a81548160ff02191690836002811115610d0057fe5b021790555060009250505b5090565b6000610d5183836040518060400160405280601e81526020017f536166654d6174683a207375627472616374696f6e206f766572666c6f770000815250610de1565b905092915050565b600080828401905083811015610dd7576040517f08c379a000000000000000000000000000000000000000000000000000000000815260040180806020018281038252601b8152602001807f536166654d6174683a206164646974696f6e206f766572666c6f77000000000081525060200191505060405180910390fd5b8091505092915050565b6000838311158290610e8e576040517f08c379a00000000000000000000000000000000000000000000000000000000081526004018080602001828103825283818151815260200191508051906020019080838360005b83811015610e53578082015181840152602081019050610e38565b50505050905090810190601f168015610e805780820380516001836020036101000a031916815260200191505b509250505060405180910390fd5b506000838503905080915050939250505056fea2646970667358221220a8cbb169cbf5974770f6e021766ffbd686112c1901feb57bb21a3dc92817486664736f6c63430007040033",
  "immutableReferences": {},
  "source": "// SPDX-License-Identifier: MIT\npragma solidity ^0.7.4;\nimport \"@openzeppelin/contracts/math/SafeMath.sol\";\n \n\ncontract Project {\n    using SafeMath for uint256;\n\n    // Data structures\n    enum State {\n        Fundarising, \n        Expired,\n        Successful\n    }\n\n    // State variables\n    address payable public creator;\n    uint public goalAmount;  // required to reach at least this much, else everyone gets refund\n    uint public completedAt;\n    uint256 public currentBalance;\n    uint public timeDeadline;\n    string public title;\n    string public description;\n    State public state = State.Fundarising;\n    mapping(address => uint) public contributions;\n    \n    // Event that will be emitted whenever funding will be received\n    event FundingRecieved(address contributor, uint amount, uint currentTotal);\n    // Event that will be emitted whenever the project starter has received the funds\n    event CreatorRecievedFunds(address recipient);\n    \n    // Modifier to check current state\n    modifier inState(State _state) {\n        require(state == _state);\n        _;\n    }\n    \n    // Modifier to check if the function caller is the project creator\n    modifier isCreator() {\n        require(msg.sender == creator);\n        _;\n    }\n\n    constructor(\n        address payable _creator,\n        string memory _title,\n        string memory _description,\n        uint _timeDeadline,\n        uint _goalAmount\n    ) {\n        creator = _creator;\n        title = _title;\n        description = _description;\n        goalAmount = _goalAmount;\n        timeDeadline = _timeDeadline;\n        currentBalance = 0;\n    }\n\n    // @dev Function to fund a certain project.\n    function contribute() external inState(State.Fundarising) payable {\n        require(msg.sender != creator);\n        contributions[msg.sender] = contributions[msg.sender].add(msg.value);\n        currentBalance = currentBalance.add(msg.value);\n        emit FundingRecieved(msg.sender, msg.value, currentBalance);\n        checkIfFundingCompleteOrExpired();\n    }\n\n    function checkIfFundingCompleteOrExpired() public {\n        if (currentBalance >= goalAmount) {\n            state = State.Successful;\n            payOut();\n        } else if (block.timestamp > timeDeadline) {\n            state  = State.Expired;\n        }\n        completedAt = block.timestamp;\n    } \n\n    // Function to give the received funds to project starter.\n    function payOut() internal inState(State.Successful) returns(bool) {\n        uint256 totalRaised = currentBalance;\n        currentBalance = 0;\n\n        if (creator.send(totalRaised)) {\n            emit CreatorRecievedFunds(creator);\n            return true;\n        } else {\n            currentBalance = totalRaised;\n            state = State.Successful;\n        }\n\n        return false;\n    }\n\n    // Function to retrieve donated amount when a project expires.\n    function getRefund() public inState(State.Expired) returns (bool) {\n        uint refundAmount = contributions[msg.sender];\n        require(refundAmount > 0);\n\n        contributions[msg.sender] = 0;\n        if (!msg.sender.send(refundAmount)) {\n            contributions[msg.sender] = refundAmount;\n            return false;\n        } else {\n            currentBalance = currentBalance.sub(refundAmount);\n        }\n\n        return true;\n    }\n\n \n    /** Function to get specific information about the project.\n    * Returns all the project's details */\n    function getDetails() public view returns  (\n        address payable _creator,\n        string memory _title,\n        string memory _description,\n        uint256 _timeDeadline,\n        State _state,\n        uint256 _currentBalance,\n        uint256 _goalAmount\n    ) {\n        _creator = creator;\n        _title = title;\n        _description = description;\n        _timeDeadline = timeDeadline;\n        _state = state;\n        _currentBalance = currentBalance;\n        _goalAmount = goalAmount;\n    }\n}",
  "sourcePath": "/Library/Dev/Code/blk-crowdfunding/contracts/Project.sol",
  "compiler": {
    "name": "solc",
    "version": "0.7.4+commit.3f05b770.Emscripten.clang"
  },
  "schemaVersion": "3.3.3",
  "updatedAt": "2021-01-02T18:30:26.881Z",
  "devdoc": {
    "kind": "dev",
    "methods": {},
    "version": 1
  },
  "userdoc": {
    "kind": "user",
    "methods": {
      "getDetails()": {
        "notice": "Function to get specific information about the project. Returns all the project's details "
      }
    },
    "version": 1
  }
}