{
  "contractName": "Project",
  "abi": [
    {
      "inputs": [],
      "name": "amountGoal",
      "outputs": [
        {
          "internalType": "uint256",
          "name": "",
          "type": "uint256"
        }
      ],
      "stateMutability": "view",
      "type": "function"
    },
    {
      "inputs": [],
      "name": "creator",
      "outputs": [
        {
          "internalType": "address payable",
          "name": "",
          "type": "address"
        }
      ],
      "stateMutability": "view",
      "type": "function"
    }
  ],
  "bytecode": "0x608060405234801561001057600080fd5b5060e58061001f6000396000f3fe6080604052348015600f57600080fd5b506004361060325760003560e01c806302d05d3f1460375780630785001c146069575b600080fd5b603d6085565b604051808273ffffffffffffffffffffffffffffffffffffffff16815260200191505060405180910390f35b606f60a9565b6040518082815260200191505060405180910390f35b60008054906101000a900473ffffffffffffffffffffffffffffffffffffffff1681565b6001548156fea264697066735822122068c870608c76057da60d43eb15e56df43d31c72e21af79b5722aaaaccef2c64964736f6c63430007040033",
  "immutableReferences": {},
  "source": "// SPDX-License-Identifier: MIT\npragma solidity ^0.7.4;\nimport \"@openzeppelin/contracts/math/SafeMath.sol\";\n\ncontract Project {\n    using SafeMath for uint256;\n\n    // Data structures\n    enum State {\n        Fundarising, \n        Expired,\n        Succesful\n    }\n\n    // State variables\n    address payable public creator;\n    uint public amountGoal;  // required to reach at least this much, else everyone gets refund\n\n}",
  "sourcePath": "/Library/Dev/Code/blk-crowdfunding/contracts/Project.sol",
  "compiler": {
    "name": "solc",
    "version": "0.7.4+commit.3f05b770.Emscripten.clang"
  },
  "schemaVersion": "3.3.3",
  "updatedAt": "2021-01-02T17:29:53.214Z",
  "devdoc": {
    "kind": "dev",
    "methods": {},
    "version": 1
  },
  "userdoc": {
    "kind": "user",
    "methods": {},
    "version": 1
  }
}